:100000000C942A000C9434000C9434000C943400AA
:100010000C9434000C9434000C9434000C94340090
:100020000C9434000C9434000C9434000C94340080
:100030000C9434000C9434000C9434000C94340070
:100040000C9434000C9434000C9434000C94340060
:100050000C94340011241FBECFE5D4E0DEBFCDBF29
:100060000E94D4000C9455010C940000DC018C918A
:10007000823469F028F4813479F4EAE3F0E00CC0CA
:10008000833441F0843441F4E1E3F0E005C0E7E378
:10009000F0E002C0E4E3F0E012968C911297813018
:1000A00061F4208181E090E011960C9002C0880FED
:1000B000991F0A94E2F7282B0EC081110DC02081F0
:1000C00081E090E011960C9002C0880F991F0A946D
:1000D000E2F78095282320830895DC018C918234F7
:1000E00069F028F4813479F4EBE3F0E00CC0833458
:1000F00041F0843441F4E2E3F0E005C0E8E3F0E0ED
:1001000002C0E5E3F0E013968C911397813061F41F
:10011000208181E090E011960C9002C0880F991F19
:100120000A94E2F7282B0EC081110DC0208181E0D6
:1001300090E011960C9002C0880F991F0A94E2F784
:100140008095282320830895DC019C91923469F0E6
:1001500028F4913479F4EBE3F0E00CC0933441F0EF
:10016000943441F4E2E3F0E005C0E8E3F0E002C0DB
:10017000E5E3F0E0208111968C9130E0082E02C07A
:10018000359527950A94E2F720FD0BC0208130E0D9
:1001900002C0359527958A95E2F720FD03C040E01F
:1001A00001C041E0842F0895D098D898D198D9986B
:1001B000D298DA98A09AA8980E940901C89B09C011
:1001C00083E294EF0197F1F700C0000081E40E9400
:1001D0001701C99B09C083E294EF0197F1F700C0B2
:1001E000000082E40E941701CA9BE8CF83E294EFEB
:1001F0000197F1F700C0000087E40E9417010E94F8
:100200001D01882321F08130C9F6A89AD7CFA8987C
:10021000D5CF599A80B5806880BD80B5826080BD99
:1002200080B5846080BD10BC8CE089B908955D9B69
:10023000FECF539A8CB953980895549A5F9BFECF82
:1002400054988CB108951F93CF93DF93EC0110E085
:10025000FE01E10FF11D8081882321F00E9417012A
:100260001F5FF6CFDF91CF911F910895FF920F93FB
:100270001F93CF93DF93EC010E941D018883F12C23
:10028000FE01EF0DF11D8081833249F0F3948E0160
:100290000F0D111D0E941D01F8018083F1CFDF9128
:0E02A000CF911F910F91FF900895F894FFCF1A
:00000001FF
